:100000000C9435010C94C4050C9466010C946601A3
:100010000C9466010C9466010C9466010C946601C4
:100020000C9466010C9466010C9466010C946601B4
:100030000C9466010C9466010C9466010C946601A4
:100040000C9466010C9466010C9466010C94660194
:100050000C9466010C9466010C9466010C947A056C
:100060000C9466010C9444050C941A050C946601DA
:100070000C9466010C9466010C9466010C94660164
:100080000C9466010C9466010C9466010C94660154
:100090000C9466010C9466010C9466010C94660144
:1000A0000C9466010C9466010C9466010C94660134
:1000B0000C9466010C9466010C9466010C94660124
:1000C0000C9466010C9466010C9466010C94660114
:1000D0000C9466010C9466010C9466010C94660104
:1000E0000C9466010C94CC020C94CF020C944B023D
:1000F0000C94B8010C94FA020C94C6010C9495016E
:100100000C94D9020C94E3020C94F1020C94C802F2
:100110000C94C0020C94D5020C9468010C94C40297
:100120000C94A4010C94F5020C94E7020C94DF02E9
:100130000C94BA020C94FB020C94ED020C94FF0296
:100140000C94D2050C94FE0100002100240027002D
:100150002A002D00300033000101000004010701D6
:100160000A0100002200250028002B002E0031008B
:10017000340002010000050108010B0100000A0B18
:1001800002090C0D0E080703040100000000000026
:10019000000000000000000000000000000000005F
:1001A000000000000000000012111000000000001C
:1001B000000000000000000000000000000000003F
:1001C0000000000020002300260029002C002F0042
:1001D00032000001000003010601090105050505C3
:1001E000070508080808020202020A0A08080404AF
:1001F00004040101010101010101030303030303DD
:100200000303040707070C0C0C0C0C0C0C0C02026B
:10021000020206060606060606060B0B0B0B0B0B68
:100220000B0B0102102020080810204010204080F5
:1002300002010201080402010102040810204080AA
:100240008040201008040201800402018040201038
:100250000804020108040201010204081020408081
:100260000102040810204080D20511241FBECFEFE8
:10027000D1E2DEBFCDBF00E00CBF12E0A0E0B2E0F3
:10028000E4E2F5E100E00BBF02C007900D92A2325C
:10029000B107D9F722E0A2E2B2E001C01D92A23E6E
:1002A000B207E1F711E0C5E3D1E000E006C0219715
:1002B0000109802FFE010E94880AC433D10780E023
:1002C0000807A9F70E9401060C94900A0C940000FC
:1002D000AF92BF92CF92DF92EF92FF920F931F9354
:1002E000CF93DF936C017B018B01040F151FEB0192
:1002F0005E01AE18BF08C017D10759F06991D60149
:10030000ED91FC910190F081E02DC6011995892BAA
:1003100079F7C501DF91CF911F910F91FF90EF9079
:10032000DF90CF90BF90AF900895FC01538D448D26
:10033000252F30E0842F90E0821B930B541710F090
:10034000CF96089501970895FC01918D828D98179D
:1003500061F0A28DAE0FBF2FB11D5D968C91928D75
:100360009F5F9F73928F90E008958FEF9FEF0895A6
:10037000FC01918D828D981731F0828DE80FF11D6F
:10038000858D90E008958FEF9FEF0895FC01918D8A
:10039000228D892F90E0805C9F4F821B91098F7383
:1003A0009927089587E392E00E94C60121E0892BF6
:1003B00009F420E0822F0895FC01A48DA80FB92F25
:1003C000B11DA35ABF4F2C91848D90E001968F737D
:1003D0009927848FA689B7892C93A089B1898C919C
:1003E000837080648C93938D848D981306C00288EB
:1003F000F389E02D80818F7D80830895EF92FF92B5
:100400000F931F93CF93DF93EC0181E0888F9B8D37
:100410008C8D98131AC0E889F989808185FF15C0F1
:100420009FB7F894EE89FF896083E889F989808114
:100430008370806480839FBF81E090E0DF91CF91E3
:100440001F910F91FF90EF900895F62E0B8D10E005
:100450000F5F1F4F0F731127E02E8C8D8E110CC074
:100460000FB607FCFACFE889F989808185FFF5CFBF
:10047000CE010E94DC01F1CFEB8DEC0FFD2FF11DC1
:10048000E35AFF4FF0829FB7F8940B8FEA89FB89FC
:1004900080818062CFCFCF93DF93EC01888D88235A
:1004A000B9F0AA89BB89E889F9898C9185FD03C0D7
:1004B000808186FD0DC00FB607FCF7CF8C9185FFBC
:1004C000F2CF808185FFEDCFCE010E94DC01E9CF24
:1004D000DF91CF91089580E090E0892B29F00E9470
:1004E000D20181110E94000080E090E0892B49F048
:1004F00080E090E0892B29F00E94000081110E9489
:10050000000080E090E0892B49F080E090E0892BAA
:1005100029F00E94000081110E94000080E090E01C
:10052000892B49F080E090E0892B29F00E9400009F
:1005300081110C94000008958150823108F05AC056
:10054000E82FF0E08827E855FD4F8F4F0C94880A7C
:10055000C802CC02BA02C002C402FA02CF02D5021B
:10056000D902DF02E302E702ED02F102FA02F5022C
:10057000FB02FF02809180008F77809380000895B6
:10058000809180008F7DF9CF80918000877FF5CFAB
:1005900084B58F7784BD089584B58F7DFBCF80911E
:1005A000B0008F778093B00008958091B0008F7D68
:1005B000F9CF809190008F7780939000089580917B
:1005C00090008F7DF9CF80919000877FF5CF80914B
:1005D000A0008F778093A00008958091A0008F7D68
:1005E000F9CF8091A000877FF5CF809120018F7790
:1005F000809320010895809120018F7DF9CF809113
:100600002001877FF5CFCF93DF93282F30E0F901CA
:10061000E458FE4F8491F901EE5DFD4FD491F9014C
:10062000E452FE4FC491CC23A1F081110E949C02A0
:10063000EC2FF0E0EE0FFF1FEE53FE4FA591B491AB
:10064000EC91ED2381E090E009F480E0DF91CF911F
:10065000089580E090E0FACF1F93CF93DF93282F87
:1006600030E0F901E458FE4F8491F901EE5DFD4F51
:10067000D491F901E452FE4FC491CC23A9F0162F76
:1006800081110E949C02EC2FF0E0EE0FFF1FEE594B
:10069000FE4FA591B4918FB7F894EC91111108C059
:1006A000D095DE23DC938FBFDF91CF911F9108950A
:1006B000DE2BF8CFCF93DF9390E0FC01EE5DFD4F92
:1006C000249184529E4FFC0184918823C9F090E0CC
:1006D000880F991FFC01E85BFE4FA591B491FC01C6
:1006E000EE59FE4FC591D49161110DC09FB7F8949A
:1006F0008C91209582238C938881282328839FBF07
:10070000DF91CF910895623051F49FB7F8943C91F6
:10071000822F809583238C93E8812E2BEFCF8FB788
:10072000F894EC912E2B2C938FBFEACF3FB7F8941F
:100730008091270290912802A0912902B0912A026B
:1007400026B5A89B05C02F3F19F00196A11DB11D2C
:100750003FBFBA2FA92F982F8827BC01CD01620F68
:10076000711D811D911D42E0660F771F881F991F23
:100770004A95D1F708958F929F92AF92BF92CF92F0
:10078000DF92EF92FF924B015C010E9496036B0196
:100790007C010E9496036C197D098E099F09683EB1
:1007A000734081059105A8F321E0821A9108A10800
:1007B000B10888EEC80E83E0D81EE11CF11C81143C
:1007C0009104A104B10429F7FF90EF90DF90CF903E
:1007D000BF90AF909F908F900895FC0101900020F2
:1007E000E9F73197AF01481B590BBC0187E392E051
:1007F0000C9468018F929F92AF92BF920F931F93B8
:10080000CF93DF93CDB7DEB7A1970FB6F894DEBFD5
:100810000FBECDBF19A2423008F44AE08E010F5D31
:100820001F4F842E912CB12CA12CA50194010E9464
:10083000660AE62FB901CA01EA30F4F4E05DD80196
:10084000EE938D01232B242B252B79F790E080E06C
:10085000109719F0CD010E94ED03A1960FB6F89400
:10086000DEBF0FBECDBFDF91CF911F910F91BF9023
:10087000AF909F908F900895E95CE1CF4F925F9287
:100880006F927F928F929F92AF92BF92CF92DF92A0
:10089000EF92FF920F931F93CF936B017C01742E05
:1008A000AC019B010E94610A882399F082E192E0E9
:1008B000CF911F910F91FF90EF90DF90CF90BF905D
:1008C000AF909F908F907F906F905F904F900C941F
:1008D000ED0346015701E894B7F82FEF3FEF4FE7DC
:1008E0005FE7C501B4010E94610A81110DC02FEFBD
:1008F0003FEF4FE75FE7C501B4010E949708181664
:100900001CF486E192E0D4CF2FEF3FEF4FE75FE496
:10091000C701B6010E94EF0918161CF48AE192E0A3
:10092000C7CF2FEF3FEF4FE75FECC701B6010E9443
:10093000970887FDF3CF20E030E0A901C701B60199
:100940000E94970810E000E087FF0AC06DE287E38D
:1009500092E00E94FE018C01F7FAF094F7F8F0940F
:10096000C0E060E070E080E09FE37C1641F020E0B2
:1009700030E040E251E40E949C08CF5FF6CFA7012F
:1009800096010E942B082B013C010E940E094B018D
:100990005C014AE00E94FA037C01E00EF11ECC23C8
:1009A000C1F1C501B4010E943D099B01AC01C30125
:1009B000B2010E942A084B015C016EE287E392E0DB
:1009C0000E94FE01E80EF91EC15018F120E030E04F
:1009D00040E251E4C501B4010E94F4092B013C013D
:1009E0000E940E094B01B12CA12C4AE0C501B401B3
:1009F0000E94FA03E80EF91EC501B4010E943D09E8
:100A00009B01AC01C301B2010E942A084B015C01A9
:100A1000DBCFC701CF911F910F91FF90EF90DF9037
:100A2000CF90BF90AF909F908F907F906F905F908E
:100A30004F9008951F920F920FB60F9211240BB68C
:100A40000F922F933F934F935F936F937F938F9367
:100A50009F93AF93BF93EF93FF9387E392E00E943E
:100A6000DC01FF91EF91BF91AF919F918F917F91A9
:100A70006F915F914F913F912F910F900BBE0F900F
:100A80000FBE0F901F9018951F920F920FB60F92E6
:100A900011240BB60F922F938F939F93EF93FF9395
:100AA000E0914702F09148028081E0914D02F0917F
:100AB0004E0282FD1DC09081809150028F5F8F7326
:100AC00020915102821741F0E0915002F0E0E95C80
:100AD000FD4F958F80935002FF91EF919F918F91E1
:100AE0002F910F900BBE0F900FBE0F901F90189577
:100AF0008081F2CF1F920F920FB60F9211242F9385
:100B00003F938F939F93AF93BF93809123029091D4
:100B10002402A0912502B09126023091220223E006
:100B2000230F2D3758F50196A11DB11D20932202E8
:100B30008093230290932402A0932502B09326026F
:100B40008091270290912802A0912902B0912A0257
:100B50000196A11DB11D8093270290932802A093B6
:100B60002902B0932A02BF91AF919F918F913F913B
:100B70002F910F900FBE0F901F90189526E8230F0E
:100B80000296A11DB11DD2CF1F920F920FB60F92E8
:100B9000112410922C0210922B020F900FBE0F9076
:100BA0001F901895E7E3F2E01382128288EE93E03B
:100BB000A0E0B0E084839583A683B78384E092E0CD
:100BC0009183808385EC90E09587848784EC90E026
:100BD0009787868780EC90E0918B808B81EC90E00A
:100BE000938B828B82EC90E0958B848B86EC90E0EB
:100BF000978B868B118E128E138E148E1092E102BB
:100C00000895789484B5826084BD84B5816084BD84
:100C100085B5826085BD85B5816085BD80916E009A
:100C2000816080936E0010928100809181008260CB
:100C30008093810080918100816080938100809108
:100C400080008160809380008091B10084608093F7
:100C5000B1008091B00081608093B00080919100DC
:100C600082608093910080919100816080939100D7
:100C7000809190008160809390008091A1008260BB
:100C80008093A1008091A10081608093A100809158
:100C9000A00081608093A0008091210182608093F8
:100CA00021018091210181608093210180912001A7
:100CB00081608093200180917A00846080937A0023
:100CC00080917A00826080937A0080917A008160BE
:100CD00080937A0080917A00806880937A001092E5
:100CE000C100E0914702F091480282E08083E091E8
:100CF0004302F09144021082E0914502F0914602D5
:100D00008FEC808310924F02E0914B02F0914C02E5
:100D100086E08083E0914902F0914A0280818061FF
:100D20008083E0914902F0914A028081886080834B
:100D3000E0914902F0914A02808180688083E091CD
:100D40004902F0914A0280818F7D8083F894E89A6D
:100D5000809169008E7F8093690080916900826034
:100D60008093690078948FE087B962E081E30E9404
:100D70005A0361E081E30E942C0362E080E30E9459
:100D80005A0361E080E30E942C03B8E32B2EB2E00B
:100D90003B2E02EF11E0C0E94C2E55245394612CF8
:100DA000712C8091E102882309F0F894F101D4902C
:100DB000F8018491E82FF0E0EE0FFF1FEE53FE4F95
:100DC000E590F49061E086E10E945A0360E086E1DC
:100DD0000E942C0362E170E080E090E00E94BB037F
:100DE00061E086E10E942C0360E086E10E945A03E4
:100DF00080E293E0E70128812D2109F4D0C001971A
:100E0000C9F78091E102811120C18091DC028F77C6
:100E10008093DC026091DE02B62EE894B7F8B092BF
:100E2000DE02682F70E090E080E00E943D096B01D7
:100E30007C01C092D402D092D502E092D602F09208
:100E4000D7026B2D70E090E080E00E943D094B01DD
:100E50005C018092D8029092D902A092DA02B092FC
:100E6000DB02AC019B0160913302709134028091EE
:100E70003502909136020E94970881110EC0A70199
:100E8000960160912F027091300280913102909111
:100E900032020E949708882311F142E0C501B40193
:100EA0000E943E0442E0C701B6010E943E0480E277
:100EB00092E00E94ED038EE192E00E94ED038092A9
:100EC000330290923402A0923502B0923602C09260
:100ED0002F02D0923002E0923102F092320281E38E
:100EE0000E94030390932E0280932D0280E30E94C0
:100EF000030387E392E00E94A4010B9721F4109270
:100F00002E0210922D0280912D0290912E02892B9B
:100F100031F4E1E0F0E0F0932C02E0932B02CC24DA
:100F2000C39482E0D82EE0902B02F0902C02F1E0E6
:100F3000EF16F10409F08BC087E392E00E94A40150
:100F40000C9721F4F0922E02E0922D0280912D0256
:100F500090912E02019721F410922C0210922B02F4
:100F6000C8B868EC70E080E090E00E94BB0364E0E9
:100F700068B968EC70E080E090E00E94BB0388E014
:100F800088B968EC70E080E090E00E94BB03D8B8BC
:100F900068EC70E080E090E00E94BB03C4CF80E981
:100FA00091E0F70120812D2119F40197D1F729CF84
:100FB00080E991E0E70128812D2191F10197D1F796
:100FC00020CF6A2FCC2009F41CCFE701A881AD21E6
:100FD00021F5662311F1D8E2CD122FC084179507B1
:100FE00008F4AC01C301B201641B750B81099109BE
:100FF00022E095958795779567952A95D1F79B017E
:10100000E69541F4EB2DF0E0EC52FD4FB087B39440
:10101000B0E0E0E8CA9480E991E0019791F6F1CE62
:10102000B12CB0E0E0E830E020E080E991E040E978
:1010300051E060E078E2C72EC8CFBA01621B730BA3
:1010400068177907E8F2BE2BDBCF7894DECE0E94DA
:101050006B02A7CE5058BB27AA270E9442080C94C7
:10106000B5090E94A70938F00E94AE0920F039F4B2
:101070009F3F19F426F40C94A4090EF4E095E7FBC5
:101080000C949E09E92F0E94C60958F3BA1762070B
:1010900073078407950720F079F4A6F50C94E80906
:1010A0000EF4E0950B2EBA2FA02D0B01B901900183
:1010B0000C01CA01A0011124FF27591B99F0593FC7
:1010C00050F4503E68F11A16F040A22F232F342F0F
:1010D0004427585FF3CF469537952795A795F0405D
:1010E0005395C9F77EF41F16BA0B620B730B840B72
:1010F000BAF09150A1F0FF0FBB1F661F771F881F2A
:10110000C2F70EC0BA0F621F731F841F48F4879581
:1011100077956795B795F7959E3F08F0B0CF939573
:10112000880F08F09927EE0F9795879508950E94EC
:101130007A0908F481E008950E94B0080C94B5097A
:101140000E94AE0958F00E94A70940F029F45F3FC1
:1011500029F00C949E0951110C94E9090C94A409EE
:101160000E94C60968F39923B1F3552391F3951BA7
:10117000550BBB27AA2762177307840738F09F5FB8
:101180005F4F220F331F441FAA1FA9F335D00E2E25
:101190003AF0E0E832D091505040E695001CCAF792
:1011A0002BD0FE2F29D0660F771F881FBB1F261755
:1011B00037074807AB07B0E809F0BB0B802DBF012C
:1011C000FF2793585F4F3AF09E3F510578F00C94FB
:1011D0009E090C94E9095F3FE4F3983ED4F38695A9
:1011E00077956795B795F7959F5FC9F7880F911D1C
:1011F0009695879597F90895E1E0660F771F881F08
:10120000BB1F621773078407BA0720F0621B730BBA
:10121000840BBA0BEE1F88F7E09508950E94CE0963
:1012200088F09F5798F0B92F9927B751B0F0E1F0A7
:10123000660F771F881F991F1AF0BA95C9F714C057
:10124000B13091F00E94E809B1E008950C94E809EA
:10125000672F782F8827B85F39F0B93FCCF3869590
:1012600077956795B395D9F73EF4909580957095ED
:1012700061957F4F8F4F9F4F0895E89409C097FB6A
:101280003EF490958095709561957F4F8F4F9F4F5D
:101290009923A9F0F92F96E9BB279395F6958795A1
:1012A00077956795B795F111F8CFFAF4BB0F11F464
:1012B00060FF1BC06F5F7F4F8F4F9F4F16C088230B
:1012C00011F096E911C0772321F09EE8872F762F41
:1012D00005C0662371F096E8862F70E060E02AF082
:1012E0009A95660F771F881FDAF7880F969587956E
:1012F00097F90895990F0008550FAA0BE0E8FEEF43
:1013000016161706E807F907C0F012161306E407C9
:10131000F50798F0621B730B840B950B39F40A26C2
:1013200061F0232B242B252B21F408950A2609F4A0
:10133000A140A6958FEF811D811D089597F99F67A4
:1013400080E870E060E008959FEF80EC089500244D
:101350000A941616170618060906089500240A941A
:1013600012161306140605060895092E0394000CA0
:1013700011F4882352F0BB0F40F4BF2B11F460FF2F
:1013800004C06F5F7F4F8F4F9F4F089557FD905858
:10139000440F551F59F05F3F71F04795880F97FB39
:1013A000991F61F09F3F79F08795089512161306F3
:1013B0001406551FF2CF4695F1DF08C01616170622
:1013C0001806991FF1CF8695710561050894089557
:1013D000E894BB2766277727CB0197F908950E94E9
:1013E0007A0908F48FEF08950E94070A0C94B50952
:1013F0000E94A70938F00E94AE0920F0952311F051
:101400000C949E090C94A40911240C94E9090E94DF
:10141000C60970F3959FC1F3950F50E0551F629F69
:10142000F001729FBB27F00DB11D639FAA27F00D3D
:10143000B11DAA1F649F6627B00DA11D661F829F64
:101440002227B00DA11D621F739FB00DA11D621F49
:10145000839FA00D611D221F749F3327A00D611D66
:10146000231F849F600D211D822F762F6A2F112448
:101470009F5750409AF0F1F088234AF0EE0FFF1F7B
:10148000BB1F661F771F881F91505040A9F79E3FD2
:10149000510580F00C949E090C94E9095F3FE4F338
:1014A000983ED4F3869577956795B795F795E79528
:1014B0009F5FC1F7FE2B880F911D9695879597F931
:1014C00008950E947A09880B990B0895A1E21A2EBB
:1014D000AA1BBB1BFD010DC0AA1FBB1FEE1FFF1FD8
:1014E000A217B307E407F50720F0A21BB30BE40B28
:1014F000F50B661F771F881F991F1A9469F760956F
:101500007095809590959B01AC01BD01CF01089528
:10151000EE0FFF1F881F8BBF0790F691E02D1994E7
:04152000F894FFCF6D
:1015240000000000FE01680195014B02C601A40100
:10153400B8016E616E00696E66006F7666000D0A12
:021544000000A5
:00000001FF
